S00C00004C4142312E7372656318
S11300000C9434000C9451000C9451000C9459013C
S11300100C9451000C9451000C9451000C94510018
S11300200C9451000C9451000C9451000C94510008
S11300300C9451000C9451000C9451000C945100F8
S11300400C9451000C9451000C9451000C945100E8
S11300500C9451000C9451000C9451000C945100D8
S11300600C9451000C94510011241FBECFEFD8E022
S1130070DEBFCDBF11E0A0E0B1E0EAE8F3E002C0EA
S113008005900D92A030B107D9F721E0A0E0B1E0CE
S113009001C01D92A830B207E1F70E9456010C94EA
S11300A0C3010C940000813039F481E090E0909316
S11300B0070180930601089510920701109206012A
S11300C00895813061F4109203011092020110929C
S11300D0050110920401109201011092000108958B
S11300E08130D9F580910601909107010197A9F516
S11300F08091000190910101892B79F58091020191
S11301009091030101969093030180930201823040
S1130110910569F01CF4019739F008958330910535
S113012049F0049751F0089581E088B9089582E078
S113013088B9089584E088B908958FE088B986E085
S11301408BB984E090E0909303018093020181E0F5
S113015090E090930101809300010895813009F0AB
S113016041C080910601909107010197D9F58091D2
S1130170000190910101892BA9F5809104019091CE
S11301800501019690930501809304018230910545
S113019071F01CF4019739F008958330910561F0F2
S11301A0049769F008958BB180688BB908958FE046
S11301B085B98FE38BB9089587E185B908958FE3F5
S11301C085B98BE58BB98BB180688BB984E090E0FD
S11301D0909305018093040181E090E090930101E4
S11301E0809300010895813009F042C081E090E0DD
S11301F00E9461008DE68BB92FEF83ED90E32150CF
S113020080409040E1F700C0000086E68BB92FEFF4
S113021083ED90E3215080409040E1F700C000005E
S11302208FE48BB92FEF83ED90E321508040904011
S1130230E1F700C000008BE58BB92FEF83ED90E36D
S1130240215080409040E1F700C0000086E08BB967
S11302502FEF83ED90E3215080409040E1F700C000
S113026000008FE38BB981E090E00E94530018B83E
S1130270089588E384B98FEF8AB98FE087B987E05E
S113028085B91BB818B81092C100EBE6F0E0808184
S113029087608083E8E6F0E08081816080837894E1
S11302A08DE68BB980E00E94530008950E943901C5
S11302B0FFCF1F920F920FB60F9211242F933F93EB
S11302C04F935F936F937F938F939F93AF93BF935A
S11302D0EF93FF93189918C02FEF89EF90E0215006
S11302E080409040E1F700C0000018B887E085B96D
S11302F081E00E94F30006C08FE39CE90197F1F7C7
S113030000C00000189BF8CF199915C09FEF29EF82
S113031080E0915020408040E1F700C0000081E07F
S11303200E94700006C08FE99FE00197F1F700C0BA
S11303300000199BF8CF1A9915C09FEF29EF80E0B0
S1130340915020408040E1F700C0000081E00E940D
S1130350AE0006C08FE99FE00197F1F700C00000EE
S11303601A9BF8CFFF91EF91BF91AF919F918F911D
S11303707F916F915F914F913F912F910F900FBE9D
S10D03800F901F901895F894FFCF1A
S9030000FC
