:100000000C9434000C9451000C9451000C94DB00BF
:100010000C9451000C9451000C9451000C9451001C
:100020000C9451000C9451000C9451000C9451000C
:100030000C9451000C9451000C9451000C945100FC
:100040000C9451000C9451000C9451000C945100EC
:100050000C9451000C9451000C9451000C945100DC
:100060000C9451000C94510011241FBECFEFD8E026
:10007000DEBFCDBF11E0A0E0B1E0E8E6F2E002C0F3
:1000800005900D92A030B107D9F721E0A0E0B1E0D2
:1000900001C01D92A230B207E1F70E94D8000C9473
:1000A00032010C940000813039F481E090E09093AB
:1000B0000101809300010895109201011092000146
:1000C0000895813081F480910001909101010197A0
:1000D00051F488B18F5F88B988B18F3020F086E005
:1000E0008BB98FE088B908958130F1F58DE68BB931
:1000F0002FEF83ED90E3215080409040E1F700C066
:10010000000086E68BB92FEF83ED90E3215080400D
:100110009040E1F700C000008FE48BB92FEF83ED32
:1001200090E3215080409040E1F700C000008BE553
:100130008BB92FEF83ED90E3215080409040E1F7A1
:1001400000C0000086E08BB92FEF83ED90E32150D3
:1001500080409040E1F700C000008FE38BB981E060
:1001600090E00E94530018B808958CE384B98FE79B
:100170008AB98FE087B983E085B980E88BB918B870
:100180001092C100EBE6F0E0808183608083EDE6B1
:10019000F0E0808180688083E8E6F0E08081836021
:1001A000808378948DE68BB980E00E945300089597
:1001B0000E94B500FFCF1F920F920FB60F9211242D
:1001C0002F933F934F935F936F937F938F939F935F
:1001D000AF93BF93EF93FF93189919C02FEF89EF57
:1001E00090E0215080409040E1F700C0000018B836
:1001F00081E00E94740009C02FEF86E791E0215052
:1002000080409040E1F700C00000189BF5CF19999D
:1002100018C02FEF89EF90E0215080409040E1F727
:1002200000C0000081E00E94610009C02FEF86E756
:1002300091E0215080409040E1F700C00000199B00
:10024000F5CFFF91EF91BF91AF919F918F917F91EA
:100250006F915F914F913F912F910F900FBE0F9033
:080260001F901895F894FFCFE0
:00000001FF
